:020000021000EC
:10B000000080002075250200C5250200C72502002A
:10B010000000000000000000000000000000000030
:10B02000000000000000000000000000E10302003A
:10B03000000000000000000057040200630402004A
:10B04000CF250200CF250200CF250200CF25020028
:10B05000CF25020000000000CF250200CF2502000E
:10B06000CF250200CF250200CF250200CF25020008
:10B07000CF250200CF250200CF250200CF250200F8
:10B08000CF250200CF250200CF250200CF250200E8
:10B09000CF250200CF250200CF250200CF250200D8
:10B0A000CF250200CF25020010B5064C2378002BD7
:10B0B00007D1054B002B02D0044800E000BF01235C
:10B0C000237010BDC03A002000000000BCF1020057
:10B0D000044B10B5002B03D00349044800E000BF27
:10B0E00010BDC04600000000C43A0020BCF10200C0
:10B0F000164B002B00D1144B9D46402292029A1A07
:10B10000924600218B460F461348144A121A0DF03E
:10B110003FFE0F4B002B00D098470E4B002B00D06A
:10B1200098470020002104000D000D48002802D09F
:10B130000C4804F09EFE0DF03BFA2000290004F0BC
:10B14000D1FF04F093FEC0460000080000800020FC
:10B1500000000000F1000200C03A0020E05E002084
:10B1600073FE010000000000C36810B50400002B4E
:10B1700001D09B689847200010BDC36810B504003B
:10B18000002B01D09B689847200010BD10B50368C4
:10B19000984710BD002801D00B68036070477047C6
:10B1A00010B58268C3680400416A006A12184B41F6
:10B1B000200000F025F9636B002B03D020001B68F2
:10B1C0002830984710BDD0B5040016001F000CF0C1
:10B1D0004DFB200000F01CF926626762A06904F0B4
:10B1E0006DFD0B000200200092197B4100F008F970
:10B1F0000CF066FBD0BD30B5040087B00CF036FB18
:10B20000200000F005F9636B002B06D023003833D3
:10B210001B78002B01D004F07BFB25001022283581
:10B22000002102A80DF0B4FD2800FFF7A6FF002DB5
:10B2300009D0059B002B03D05B6802A92800984722
:10B24000059B0193636302A8FFF797FF0CF038FB9F
:10B2500007B030BD10B50400064B08330360FFF79C
:10B26000CAFF20002830FFF788FF200000F0D8F840
:10B27000200010BD50E3020010B50400FFF7EAFF04
:10B28000200004F037FE200010BD030010B55B6BFA
:10B2900028301B68984710BD10B50400034B0833D5
:10B2A0000360FFF7D7FF200010BDC04664E3020033
:10B2B00010B50400FFF7F0FF200004F01BFE200093
:10B2C00010BD10B504000CF0D1FA2368002B0BD18F
:10B2D000237F002B01D004F001FBA06904F0EEFCF9
:10B2E0000123A060E16023600CF0EAFA10BD70B5A4
:10B2F00006000CF0BBFA336800240025002B08D0B0
:10B30000B06904F0DBFCB268F368801A994104006C
:10B310000D000CF0D5FA2900200070BD70B50600B4
:10B320000CF0A4FA346975693000FFF7E0FF2418C7
:10B330004D410CF0C5FA2900200070BD10B5FFF793
:10B34000EDFFFA220023920011F03AF910BD10B57A
:10B3500004000CF08BFAA06904F0B0FC002200237A
:10B36000A060E160226163610CF0AAFA10BD0023C5
:10B3700010B50022036000238260C3600261436154
:10B38000040004F0ABFC0123A06123772000FFF749
:10B39000DEFF200010BD10B503689B68984710BD04
:10B3A000094B10B508330022036000238260C3609C
:10B3B000002303614361040004F090FC0349A06191
:10B3C00004F00EFC200010BD78E3020097B30100EA
:10B3D00010B50400084B0022083323600023A2604C
:10B3E000E36000230800A16123616361034904F065
:10B3F000F7FB200010BDC04678E3020097B30100C0
:10B4000007B5010000900831806904F014FC07BD05
:10B41000010010B50831806904F036FC10BD000051
:10B4200010B50400034B08330360FFF7F1FF200061
:10B4300010BDC04678E3020070B5160004000D0090
:10B440005030102200210DF0A3FC002E05D1290060
:10B45000200000F09CF8200070BD32002900200080
:10B4600000F065F8F7E710B500F04EF910BD10B523
:10B47000040000F09EF820005030FFF775FE200019
:10B4800010BDF7B5436916000A7907009A40050018
:10B4900003694837CB1A1A434B6901929B1BDA1791
:10B4A00093439B194B61037B38004B710C00009751
:10B4B00000F005FA2A001368002B2FD05869616943
:10B4C000471A28D4884229D19B68A360002B02D058
:10B4D000210008311961210013680C31E360196102
:10B4E000EB6A14602261002B10D02A0028321278F7
:10B4F000002A0BD02A68A24208D1E268002A05D1AE
:10B500006169286B891BCA1791439847009800F01E
:10B51000DAF90198FEBD08331A00CCE7A360002BCE
:10B5200002D02100083119610023E360D8E700232D
:10B5300070B504000D00026183614361002D21D1CB
:10B54000E56121626262256000F0F0F9230060602D
:10B55000200028332573A56034301D70E562256313
:10B5600000F0B5F900280CDB2000483000F0A4F909
:10B57000002806DB20004C3000F09EF9002800DD9A
:10B58000280070BD63696D0801336361D6E770B54B
:10B59000050008000E000DF02FF8041E06D0020072
:10B5A00031002800FFF7C3FFAC6170BD01204042AD
:10B5B000FBE770B504000668002E16D1E36A002B85
:10B5C00003D00121206B4942984720004C3000F005
:10B5D00075F92000483000F071F92000343000F097
:10B5E0008AF9A0690DF012F870BD2568002D01D10F
:10B5F000B668E1E7EB69002B02D0280024309847B9
:10B60000ED68F3E7F8B507002731060003230D00C6
:10B610004C3738009D4300F052F93300F4691C3375
:10B62000002C10D1336A9D4229D85B1B3362012361
:10B63000746A3800621972622560237100F043F960
:10B64000201E0CD1F8BD2268954214D8E268002A69
:10B650000ED01A60A3689360380000F034F901221C
:10B660000023200052426361A261E3612430E9E7D4
:10B67000A2681A60F0E72300A4680833D0E7380016
:10B6800000F021F92000DDE770B50C00243CE369EF
:10B690000600002B01D00800984735004C352800E3
:10B6A00000F00DF93200F3691C32002B11D018683C
:10B6B0002168884209D30CD1E36013689B68A360BA
:10B6C0002800146000F0FFF870BD1A009B68083273
:10B6D000EBE70023E3601368F1E770B514000500A1
:10B6E0000E0000F023F9210024394B6902001B18D9
:10B6F0000E624B612800FFF7C4FE040028003430BE
:10B7000000F0FEF8200070BDF0B587B00400009195
:10B7100000F00CF9009B06001B180293230028334D
:10B7200001930023019A03931370250048352800E4
:10B7300000F0C5F8237B0133237363689B1B002B48
:10B7400000DC6660236805A90593002B03D05A69C5
:10B75000921B002A33DD2360002B00D01C61039B69
:10B7600028000B6000F0AFF8059B05A9002B2AD13B
:10B77000059E002E36D100F0D9F8009B0700002B63
:10B7800055DB029B1E1A002E53DCE36A002B14D0FB
:10B79000280000F094F8E36A002B08D02268002A01
:10B7A00005D05169206BC91BCA17914398470123E3
:10B7B000019A1370280000F086F807B0F0BD190058
:10B7C0009B680831C1E71A0000269F68D068966020
:10B7D0001600002804D108330A6019003B00C5E7B1
:10B7E0000200F3E7336AB768002B02D03000243040
:10B7F0009847B369002B0BDB7269D318736100F0B3
:10B8000095F8310002002000FFF73BFE3E00B0E754
:10B81000337961690133DBB21A008A4000D1012318
:10B820003100337124312000FFF72EFFEEE70126AF
:10B830007642280000F043F82368002B06D05969AF
:10B84000CF1BFB179F43B74200D23E00280000F0F9
:10B850003AF820003100343000F058F8A368002B8B
:10B860000BD0280000F02BF8A368002B02D0013B7E
:10B87000A3609FE7280000F026F800F057F80600C4
:10B8800053E7243841617047243881617047243878
:10B89000C161704710B5064C2000FFF74FFD054B06
:10B8A0001A68801818602000FFF751FD10BDC046CF
:10B8B000043B0020643B002000207047704710B517
:10B8C0000BF0D4FF10BD10B50BF0FAFF10BD1FB583
:10B8D00004001022002168460DF05AFA231D02933D
:10B8E00010236846039304F069FF206043425841E7
:10B8F000404204B010BD10B5006805F00DF810BD51
:10B9000010B50121006804F07DFF10BD10B50B1EBD
:10B9100001DA01235B4200220121006804F0B2FF3A
:10B92000013843425841C0B210BD0000F0B52C4B65
:10B9300087B01D782B4F2C4E002D46D13800FFF7D5
:10B9400016FD2A4C2000FFF72BFD2000284B290074
:10B950002360102228300DF01BFA0123254A3800FD
:10B9600013703560FFF7ADFC1022290002A80DF01E
:10B970000FFA214B0293214B05930BF077FF636B7A
:10B98000002B05D11B4B1B78002B01D003F0A6FF29
:10B99000250028352800FFF7F0FB059B002B03D07E
:10B9A0005B6802A928009847FA22059B92042000B0
:10B9B000019363630023FFF706FC0BF081FF02A8ED
:10B9C000FFF7DBFB0123064A137038003468FFF7EA
:10B9D000B5FC3368A342F8D1C01807B0F0BDC0462B
:10B9E000683B0020043B0020643B0020243B0020F7
:10B9F00058E302005C3B002095B8010044E30200DC
:10BA0000704710B50368002B01D00800984710BD9F
:10BA100002000B00F0B5126889B0019203AA15006C
:10BA20001E0040680168C9688C4692CE92C5DB68EA
:10BA30000199D36000231361E04709B0F0BD000015
:10BA400070B50400002521600E0045600C2208300E
:10BA500029000DF09DF9094BA56163612577AE4280
:10BA60000AD1074D2B68002B02D103F04DFD286051
:10BA700023689B00EB586360200070BD03BA01008F
:10BA8000943B002070B500280DD1124C2668002E82
:10BA900007D1203004F022FA05003100FFF7D0FF73
:10BAA0002560206870BD01260B4D2B78BFF35B8F9E
:10BAB0000A4C334201D02000F4E7280004F0E4F9F6
:10BAC0000028F8D031002000FFF7BAFF280004F06A
:10BAD000F9F9F0E7703B00206C3B0020743B00203C
:10BAE000436810B50400002B02D1044804F078F933
:10BAF00060680368DB69984710BDC0468CE30200AC
:10BB000010B5037F0400002B0BD04368002B02D13B
:10BB1000044804F065F900236068237703689B6894
:10BB2000984710BD8CE302000200030073B50800C3
:10BB3000083270C870C2CA68002118009961197F64
:10BB40005A610830002908D09968002905D00349B6
:10BB5000002902D0019301A9904773BD01BA0100E9
:10BB600007B5027F0300002A0CD1013202779A68E0
:10BB70000830002A06D0044A002A03D0019301A904
:10BB80005B69984707BDC04601BA0100704710B510
:10BB90000800FFF777FFFFF7E3FF10BDF7B5FA26C0
:10BBA000B6007143009308AB1B78040008001449E9
:10BBB0001700019310F026FB85B2300025807843F2
:10BBC0000F4910F01FFB6B461B8880B2A3806B46A9
:10BBD0001B796080A371032D01D804232380802367
:10BBE0002288DB019A4200D92380032801D804224D
:10BBF000628062889A4200D963802000FEBDC04600
:10BC00007102000002207047022070470020704738
:10BC1000704702207047022070477047022070472B
:10BC200000207047704710B50368002B01D0080052
:10BC3000984710BD10B50368002B01D00800984745
:10BC400010BD70B50400E36A2363206B002807D0A1
:10BC5000C36821009847236B002BF4D01B69F3E7DE
:10BC6000E06A002804D0056904F044F92800F8E7E8
:10BC7000E062A068002804D0056904F03BF92800C0
:10BC8000F8E7A0606069002804D0056904F032F983
:10BC90002800F8E76061206A002804D0056904F0F4
:10BCA00029F92800F8E7206270BD0000064B70B546
:10BCB000040003604068002804D0056904F01AF904
:10BCC0002800F8E7200070BDB8E3020010B50400BA
:10BCD000FFF7ECFF200004F00DF9200010BD00007C
:10BCE000064B70B5040003604068002804D0056965
:10BCF00004F000F92800F8E7200070BDD8E3020046
:10BD000010B50400FFF7ECFF200004F0F3F820006A
:10BD100010BD0000064B70B50400036040680028A9
:10BD200004D0056904F0E6F82800F8E7200070BDAB
:10BD3000E8E3020010B50400FFF7ECFF200004F078
:10BD4000D9F8200010BD0000064B70B50400036058
:10BD50004068002804D0056904F0CCF82800F8E712
:10BD6000200070BDC8E3020010B50400FFF7ECFF2F
:10BD7000200004F0BFF8200010BD000010B5040042
:10BD8000084B03602830FFF7C5FF20001C30FFF789
:10BD9000A7FF20001030FFF7D7FF201DFFF786FF19
:10BDA000200010BDF8E3020010B50400FFF7E6FF25
:10BDB000200004F09FF8200010BD10B50022040000
:10BDC0000270431C11341A700133A342FBD141822B
:10BDD00010BD0000F0B597B00593036807AC9B68F1
:10BDE00004910393110023000600A1C9A1C30025FB
:10BDF000D36829000C220CA80A9311AF0B950CF004
:10BE0000C7FF094B290038000F931095FFF7D5FFA6
:10BE1000059B2200009301970CAB04993000039C12
:10BE2000A04717B0F0BDC04627BC010010B502788E
:10BE3000002A0BD10C781300002C05D1438A488AC4
:10BE40001B1A58424341DBB2180010BD0023012ADF
:10BE5000FAD10A78012AF7D1013101300F320CF002
:10BE6000DFFE43424341EEE770B503680A68050010
:10BE70000C00934201D0002070BD04310430FFF764
:10BE8000D5FF0028F7D02A7E237E53405B06F2D1EF
:10BE90006A8B638B9A42EED1EB69E2699342EAD1F5
:10BEA000236A286AC01A43425841C0B2E4E770B519
:10BEB00000250400290020C0FFF77FFF2576658359
:10BEC000A583E5832562200070BD70DF704771DFB8
:10BED000704710B50BF088F910BD0000074B10B586
:10BEE0001C78002C07D1012220001A7003F008FBF7
:10BEF0002100FFF74CFE002010BDC046E03B0020B3
:10BF0000F0B505008BB006F0D7FC280008F05CFD0A
:10BF1000280000F0DBF9002003F0F2FA03680600C5
:10BF2000DB699847336804005B6A300098473368E0
:10BF300002901B6B300098470300288810380D28AA
:10BF400000D991E010F04AF90750909090899090B4
:10BF50009090909690B3AE8820003100AF7D01F0B4
:10BF6000CBFA20000122EB7B583001930378297A29
:10BF700093439C46022362461343037002380378BE
:10BF800004AA0133037004AB59711F716946002381
:10BF900004960979D3801381538153739373D373B8
:10BFA0001374537493742B001173062229001833F1
:10BFB000099304AB981809310CF058FE29000D20A4
:10BFC00004AB06221031C0180CF050FE94346368A4
:10BFD000A360A068002847D0C36804A99847A36855
:10BFE000002BF4D01B69F3E742492000AF8801F031
:10BFF00083FA2B7A300001933368DB6A9847060096
:10C00000ED30FF300622390000F0D0FEB36B9F42C6
:10C0100004D13000736B34309B689847220056324D
:10C020001378013BDBB21370002B03D1022193780C
:10C030008B4393706A46127904AB04971A71A0344B
:10C040006368A360A06800280ED0C36804A998475D
:10C05000A368002BF4D01B69F3E729005B69A8886B
:10C060000831002B00D098472900029802F028F9E7
:10C070000BB0F0BD2E7A002E05D1220001215832DE
:10C0800013788B431370636E002BEDD01A4A002A8D
:10C09000EAD0A366A06E0028E6D0C36831009847B6
:10C0A000A36E002B01D1636EF3E71B69F1E7012654
:10C0B00069460F272B7CEF575A071E40920FDB086B
:10C0C0000A710B7329000622093104A80CF0CEFD79
:10C0D0006A46127904AB1A726A46127B9F71DE714E
:10C0E0005A722B002000113307938C348030236860
:10C0F00004A9B8E7FFFF000001BA010010B522490A
:10C1000088B0162006F064FA204B4822009320499C
:10C11000204B68460BF0D6F9002801D00BF0C0F890
:10C1200003AC2200012103200BF038FAC023DB000E
:10C1300023610123227B13432373042323800028DC
:10C1400002D0072008B010BD20000BF03FFA0028F5
:10C15000F7D108F04BFC01A8FFF7B9FE0028F0D199
:10C1600001A9FFF7B2FE0028EBD10B480BF0F2F962
:10C1700080B20028E6D109480BF0F6F980B2002819
:10C18000E0D100F06FF9DDE77D75020001000007E6
:10C19000983B0020DDBE010001BF0100D3BE0100BD
:10C1A00003000200F0B55F3391B001931B785C325D
:10C1B00004000F000092022B61D1002608A8310074
:10C1C0000796FFF7FAFDCA2307AD2E766E83AE837E
:10C1D000EE832E625B00E358079A934230D0002F23
:10C1E0001AD1009B26001A7818235343E31876339C
:10C1F0001A88D9235B003900E252303602A8FFF7D3
:10C20000DCFD02A93000FFF711FE00283ED020001F
:10C21000636C4430002B4DD100269534310008A8C2
:10C22000FF340796FFF7C9FD2E766E83AE83EE834B
:10C230002E620ECD0EC40ECD0EC40ECD0EC41BE06C
:10C240002000993008A9FF30FFF7F0FD0028C6D084
:10C2500023009533FF33197E2A7E4A405206BED111
:10C26000598B6A8B9142BAD1DA69E9698A42B6D1AF
:10C270001B6A2A6A9342B2D10123019A1370009B70
:10C28000009A1B780133137011B0F0BD2100993171
:10C29000FF313000FFF7CAFD0028BDD0390028006B
:10C2A000FFF78BFD200029000830FFF7BFFD0028B5
:10C2B000B2D1ACE7044B002BAED021009531FF3159
:10C2C000236D9847A8E7C04601BA0100F0B5040005
:10C2D00087B0002003F014F90368DB6A9847030075
:10C2E000060005002088ED3330383436FF33092846
:10C2F0000ED80FF073FF050D1A8DA228330D516B68
:10C30000E388002B0CD1210030000C3102F02AFA16
:10C31000300002F02DFC300002F0ACFB07B0F0BDA5
:10C320006B6B30009B689847F2E7E388002B05D1E0
:10C33000210030000C3102F0A1FAE9E700213000C1
:10C34000FFF72EFFE4E76B6B30005B68984700282F
:10C35000DED0211D300002F0F7FAD9E70E200A22C4
:10C36000002168440CF014FDA38801AF0193A38958
:10C37000BB80E389FB80238A12343B81FC60AB687D
:10C38000EB60E8680028C3D0C36839009847EB68C1
:10C39000002BF4D01B69F3E7A38801AF0193A389B5
:10C3A000BB80A37BBB71238A3B81638A14347B816E
:10C3B000FC606B69AB61A8690028A9D0C36839002B
:10C3C0009847AB69002BF4D01B69F3E7A38801AF52
:10C3D0000193A389BB80A37BBB71238A12343B8169
:10C3E0002B6AFC60002B00D192E7194A002A00D189
:10C3F0008EE76B62686A002800D189E7C36839005C
:10C4000098476B6A002B01D12B6AF2E71B69F0E7B2
:10C41000E288A188002A05D085204000824207D00A
:10C420000B2206E0220018000C3200F0D2FC6FE76D
:10C430000022180000F0BAFC6AE7E288A188002A0E
:10C44000EED1220018000C3200F004FD60E7C04677
:10C4500001BA010077DF704778DF70477ADF7047F5
:10C460007CDF70477FB5002302ACA380134B144ED2
:10C470000293C8235B00E380803BFF3B01AD3000AB
:10C480002B700CF0FFFE310082B22800FFF7E8FFAE
:10C4900080B200280FD180208000FFF7DDFF80B23E
:10C4A000002808D12000FFF7D9FF80B2002802D170
:10C4B000FFF7D0FF80B204B070BDC04628009001E5
:10C4C00030E4020087DF704768DF704773B504000F
:10C4D000002003F015F803681B6B984705002078CF
:10C4E0000C2819D80FF07AFE5407194B73681858A6
:10C4F000181818616500394B60881B7801241900F1
:10C500005A08214022406C685B065B0F002C00D06B
:10C51000A0470122324B1A7073BD237A012B02D13E
:10C52000A08808F0DBFBAB686088002B01D00021FD
:10C53000984701AE60883100FFF7C4FF33781A07CF
:10C54000120F012A03D0022A11D0002107E01B0993
:10C55000013BDBB20021022B01D8224AD15C60886A
:10C56000EB68002B00D098471D4B0022D3E71B0936
:10C570000421012BF3D00131022BF0D0E5E76189D2
:10C58000194B994200D98821C9B26088AB68E8E7A5
:10C59000A08808F0A3FBBFE7637A002BBCD12B690E
:10C5A0006088002BB8D09847B6E700220F4B1A607E
:10C5B000B2E70E4B0322FAE70AF054FC0E28ABD088
:10C5C000082302009A43A7D00AF06AFEA4E70123D9
:10C5D00001A90B70608808F07FFA9DE7FC2E00200F
:10C5E000E83B002036E40200FF0F0000E43B00209F
:10C5F000014B18787047C046E13B0020F7B51500A5
:10C600000022254C0F002178060091420FD1934261
:10C610000FD0694622200093FFF756FF002808D06C
:10C620000622082803D01138424242410432100049
:10C63000FEBD01210F408F403200BC46072717483E
:10C640000A4003782F408B431343022265469343ED
:10C650001D4370233F019D433D430570C378002E69
:10C6600016D00B431343C37008F018FA002802D108
:10C670000B4808F0FFF904220728D8D00232082816
:10C68000D5D00B220028D2D1012302002370CEE79F
:10C690008B439343E7E7C046E13B0020FC2E00209C
:10C6A000CDC40100112310B5084C236008F09AFA9C
:10C6B000031E06D12368112BFCD00020236883427F
:10C6C00003D00620082B00D0053010BDE43B00202D
:10C6D00037B501AD0C0080B2290008F00FFA021E38
:10C6E00013D1297802200B00034002D020701000E3
:10C6F0003EBD012218001142FAD0084B1B78002BD6
:10C7000001D02270F4E72070F2E70620082AEFD06B
:10C71000034B02389A42EBD00730E9E7E83B0020B0
:10C720000230000010B50400012903D0022921D0F5
:10C7300002201EE00220144A13788B4383431370B7
:10C74000D3788B43D370104808F0A8F9011E03D1A9
:10C75000A0B208F0B3F901000420072909D0023083
:10C76000082906D00B20002903D101220800074B1D
:10C770001A7010BD0120044A137803438B431370D1
:10C78000D3781843D070DEE7FC2E0020E13B002078
:10C79000094B10B519780200092300290AD0082195
:10C7A000002008F09DF90023984203D003330E289F
:10C7B00000D00333180010BDE13B002010B506F097
:10C7C00072FF10BD022310B50B708C330B713F3B11
:10C7D0004B712D338B714A1C043106F03BFF10BDA9
:10C7E000A2DF7047A3DF704763DF70470022014B71
:10C7F0001A607047EC3B002010B586B06B46DC1D1C
:10C80000002302AA2370C15C99540133102BFAD182
:10C8100021001000FFF7E8FF0023984200D12378A1
:10C82000180006B010BD00000122F0B5438A87B0A1
:10C830000393037804000192002B3BD0244E83180D
:10C840000093244A336800279C461100BC4511D050
:10C850000023981E012804D90098D55CC05C85424D
:10C8600033D10133102BF4D11120784309180B7CFC
:10C8700001931FE00098FFF7BFFF2378029001901B
:10C88000002B01D112340094042F13D0112538004D
:10C890006843104C1022201800990CF0E7F9002290
:10C8A00033685D436419A270E2706A46127A0133FC
:10C8B000227433606A46127905AB9A705888039BDC
:10C8C00000040343180007B0F0BD01371132BDE783
:10C8D000EC3B0020F03B0020F0B59BB01F0020ABEC
:10C8E000029102CB0BAC1B880391049322AB1B88F3
:10C8F0000190059323AB1B782000069325AB1E887F
:10C9000026AB1B78079327AB1B78089308ABD91D80
:10C910000A7001220CF0AAF9302322781A420ED0B4
:10C920000CAC0322002120000CF032FA0622A3787E
:10C9300093431A0002231343A3703B4B238013AC91
:10C940001C22002120000CF023FA0BAB1D783023B1
:10C950002B40591E8B410CAA5B421A402570626124
:10C96000002E05D0249B002B02D0636026816681B7
:10C970000DAC0322002120000CF00AFA0121079BD4
:10C98000089A0B400A401201DB001343069A0A4042
:10C990001100022213430B43A37032231D4209D01E
:10C9A000781E042806D80FF019FC03101214160084
:10C9B000112323700C231D4211D0781E04280ED899
:10C9C0000FF00CFC0B292B2D2F002123F1E7312335
:10C9D000EFE71223EDE72223EBE711236370222018
:10C9E00008AB06220021C0180CF0D2F9029B0EAD54
:10C9F0000E936B461B8A2A002B816B469B8A13A9D8
:10CA0000AB81039B01982B61289B6C60FFF7E8FECC
:10CA100080B21BB0F0BD2123E0E73123DEE7122313
:10CA2000DCE72223DAE7C04611110000F0B589B037
:10CA300000930EAB1B8805000F0016000193032224
:10CA40000FAB002102A81C780CF0A2F901230E20E4
:10CA50001C40DB181C4302AB9C700E4B02AA1380D7
:10CA600002AB06220021C0180CF092F903AC02AB15
:10CA700063606B461B88109A23816B469B8821005C
:10CA800028000397A3812661FFF7ACFE80B209B0AE
:10CA9000F0BDC0461111000093DF704794DF70476E
:10CAA00010B50368002B01D00800984710BD10B5E1
:10CAB0000368002B01D00800984710BD70470300A1
:10CAC0000A00F0B570CA70C370CA70C370CA70C370
:10CAD00070CA70C30B6B00240363030044633833D4
:10CAE0000832E0CAE0C34B6C43648464F0BD70B5A7
:10CAF00006000D000400E43629002000FFF7B4F919
:10CB0000002802D14C34B442F6D170BD70B50D008E
:10CB100004000B68102203600B790371CB8A053186
:10CB2000C38205300CF0A2F82B7E200023766B8B9D
:10CB30006383AB8BA383EB8BE3832B6A236270BD90
:10CB400007B501AB198019005A80FFF7A5FF032331
:10CB500010280CD004D80023984208D00B2306E0FC
:10CB60000523112803D0034A013B9042F6D1180057
:10CB70000EBDC0460230000007B501AB1980190098
:10CB80005A80FFF78BFF032310280FD007D800230C
:10CB900098420BD00633082808D00B2306E0052363
:10CBA000112803D0024A013B9042F6D118000EBD75
:10CBB0000230000070B500250400290020C0FFF7F6
:10CBC000FCF80C2620003200290025766583A58319
:10CBD000E583256224300CF0DBF82000064B65630A
:10CBE00023633200290038300CF0D2F8034BA564DF
:10CBF0002000636470BDC046A1CA0100AFCA010035
:10CC000010B50400FFF7D6FF20004C30FFF7D2FF2D
:10CC100020009830FFF7CEFF200010BDF8B50400CB
:10CC200016001D00FFF772FF23003200243383CA71
:10CC300083C3F3680022236323002900626338332F
:10CC4000C1C9C1C3EB6820006364A264F8BD70B5BC
:10CC500003688AB0040000900293036A11200393D2
:10CC6000137802AD2B72538A0E006844511C1022B7
:10CC70006B830BF0FBFF2000AE8301952430236B08
:10CC8000694698470AB070BD07B5002203000192BB
:10CC90006A460090117138305B6C6946984707BD51
:10CCA000F0B50C00A7B068461500FFF72FFF220073
:10CCB00009AB243243CA43C30021236B0D910C936B
:10CCC00008320EABC1CAC1C3636C13A81193129191
:10CCD000FFF770FF13A92000FFF7F1FE2900684657
:10CCE000FFF7D2FF27B0F0BD10B5040096B003A83F
:10CCF000FFF760FF03A92000FFF7B6F8002802D174
:10CD0000002016B010BD0F9B226B01939342F7D108
:10CD100021000C2224310CA80BF082FF0028EFD157
:10CD2000149B626C9342EBD121000C22383111A884
:10CD30000BF076FF43425841C0B2E2E7F8B5060077
:10CD40000F000400E436390020002500FFF78CF8BE
:10CD5000002804D14C34B442F5D1002504E0200071
:10CD6000FFF7C2FF0028F5D12800F8BD10B5040078
:10CD7000FFF7E4FF011E03D000222000FFF790FF21
:10CD800010BDF8B506000F000400E436236A250044
:10CD90009F4204D04C34B442F8D1002504E0200076
:10CDA000FFF7A2FF0028F5D12800F8BD70B50400F8
:10CDB0001500FFF7E6FF011E03D02A002000FFF751
:10CDC0006FFF70BD10B5FFF7DCFF431E9841C0B286
:10CDD00010BDF0B589B00500009101920026FFF763
:10CDE000D0FF0400B0421ED0019B1B88B3421CD967
:10CDF00006237343019AD3189A795F88012A0BD1CD
:10CE0000998803A8FEF7D9FF013603AA390020004C
:10CE1000FFF71DFFB6B2E7E73A0039000098FFF7C9
:10CE2000ABFE021E0DD109B0F0BD0622013B5343FB
:10CE3000019AD3185988E28B013189B2914205D900
:10CE4000002221002800FFF72BFFECE70098FFF7F6
:10CE500077FEE6E7F0B589B0009001911400002755
:10CE6000FFF78FFF0500B84244D02388BB422CD97E
:10CE7000A3780022012B16D0110003AEB3180132A3
:10CE80005970102AFAD112210123794333706118A5
:10CE900002AB581D06310BF0E9FEB27B737B120228
:10CEA0001343738206E012237B43E318D98803A857
:10CEB000FEF783FF12237B43E318998803AA280017
:10CEC0000137FFF7C4FEBFB2CFE71222013B534345
:10CED000E418A188EA8B013189B2914205D9002278
:10CEE00029000098FFF7DCFE04E00198FFF728FE18
:10CEF000021EF5D109B0F0BD70B505000400E4359F
:10CF00002000FFF7F1FE002803D14C34AC42F7D1EA
:10CF10000400200070BDF0B50D001E00EB8B99B031
:10CF20000193498B0392019A8B1C07000293934251
:10CF300009D9002405950694F36805A9300098479F
:10CF4000200019B0F0BD2B6A9CB22100FFF73AFF18
:10CF5000002801D00524F3E73800FFF7CDFF071EB6
:10CF6000F8D06B4620001989019AFFF7E9FD041EED
:10CF7000E6D129003300039A05A8FFF74FFE05A963
:10CF80003800FFF79CFDDBE70160012170B51C1C38
:10CF900004AB1D8805AB1B880262027E4583E50752
:10CFA0008383ED0F8A4363080B402A4302258B409D
:10CFB000AA431A430423A5080D40AD009A43E6088E
:10CFC0000E402A43DB18F6009A43250932430D40F0
:10CFD00008332D019A432A43202563090B40AA43B5
:10CFE0005B0113434022A4092140890193430B4371
:10CFF000037670BD016000218C46F0B589B00FAD9D
:10D000001E002B8810AD0EAC00932B880262247892
:10D0100003AA019311706346571801317B701029E0
:10D02000F9D1031D5682E0CAE0C360CA60C36B46F3
:10D030001B88012243836B469B88E5078383037E1D
:10D04000ED0F9343660816402B4302259640AB43F1
:10D0500033430426A5081540AD00B3432B430825F0
:10D06000E6081640F600AB432509154033432D0171
:10D070008B432B432025610911404901AB430B43EE
:10D080004021A409224092018B431343037609B047
:10D09000F0BD70DF704771DF704772DF704773DF7C
:10D0A000704774DF704775DF704776DF704777DF52
:10D0B000704778DF704779DF70477ADF70477BDF32
:10D0C00070477CDF70477DDF70478ADF70478BDFFA
:10D0D00070478CDF70471420704764207047A02091
:10D0E0008001704710B5FFF7F2FF0023984200D08F
:10D0F0000533180010BD10B50400FFF7D2FF03235D
:10D10000002805D101210300583422788A43227077
:10D11000180010BD08003B2110B58A4200D0283904
:10D1200080B2FFF7C2FF0323002800D103001800DC
:10D1300010BD030010B5FE330A00598F03681B6A47
:10D14000984710BD10B50800FFF7B9FF032300286A
:10D1500000D10300180010BD10B50800FFF7ADFFA7
:10D160000323002800D10300180010BD88B210B5B9
:10D170001100FFF798FF0023984200D003331800F6
:10D1800010BD080010B51100FFF79DFF0023984265
:10D1900000D00333180010BD10B50800FFF789FF59
:10D1A0000023984200D00333180010BD10B50800CA
:10D1B000FFF781FF0023984200D00333180010BD11
:10D1C00010B50800FFF773FF0023984203D0053322
:10D1D000112800D0023B180010BD0000024B0B606C
:10D1E000082313607047C046D4E40200082070474B
:10D1F000B830017000207047B930017000207047CE
:10D2000002207047B83000787047B9300078704716
:10D210000020704710B50368002B01D00800984724
:10D2200010BD10B50368002B01D00800984710BD51
:10D230000200030010B5F33211786C309B6F9847F1
:10D2400010BD10B5002801D01CC91CC010BD70470E
:10D25000030010B542689968501008181B68D2077F
:10D2600001D50268D358984710BD13B50C001100C2
:10D27000012C0DD86B460622581C0BF0F7FC002041
:10D280006B4669461C70FFF704FF002805D003E0D9
:10D290000120A31E8342F3D9032016BD73B568464F
:10D2A0000E001500FFF7F7FE032400280DD1002E15
:10D2B00002D06B461B7833700024A54205D06B4624
:10D2C0000622591C28000BF0D1FC200076BDF7B5D2
:10D2D000060007000D000024BB363B00BA331B7864
:10D2E000A34214D96B79A34211D907236343019355
:10D2F000019A2B68711C9818013006220BF0B6FCBD
:10D3000033782A680199013453540736E5E72C71C4
:10D310000020FEBD112337B5080001AC23700D00BD
:10D320000BF0B0FF290082B22000FFF7CAFE0023F5
:10D33000984200D0033318003EBD0000012110B513
:10D34000044A080005F086FA0023984200D00B3307
:10D35000180010BD79D80100F8B503680400DB6C33
:10D360000D000E7998470323864224D80023072115
:10D370002A799A4207D9080058432E68805D03280D
:10D3800018D00133F5E723000026BA331A70BB34F6
:10D390002B79B34211D9072777432B68601CD91921
:10D3A000013106220BF062FC2B680136DB5D237035
:10D3B0000734EDE704231800F8BD0023FBE710B5A0
:10D3C0000C00C97F01201F2902D8002901D10320A8
:10D3D00010BDD37F2000FFF760FE0028F7D1208C1E
:10D3E000FFF767FE0028F3D0F1E70000F8B505006D
:10D3F0000400AC356B68AB60A868002807D0C36830
:10D4000021009847AB68002BF4D01B69F3E7260096
:10D41000B0363568002D05D02F69280002F06AFD6E
:10D420003D00F7E72200FC213560583213782600D2
:10D430000B40137023000A3656331D709D711F2256
:10D44000290030000BF0A4FCF5772A361F222900B2
:10D4500030000BF09DFCF577606E002804D0056964
:10D4600002F048FD2800F8E7250098356066286836
:10D47000002804D0066902F03DFD3000F8E72600E0
:10D48000A43628603568002D05D02F69280002F0E9
:10D4900031FD3D00F7E72000356029000C226C309B
:10D4A0000BF076FC2000084BE567A36729000C22EF
:10D4B00080300BF06DFC2300044A8C33903428003C
:10D4C0001A602560F8BDC04623D2010015D20100C4
:10D4D00010B50400FFF78AFF03000620002B0AD1D5
:10D4E000220001211800FE3249425187BA34463ADF
:10D4F00013705370237010BDFE3041877047FE30AB
:10D50000408F7047F0B593B0019000200C0001F0FF
:10D51000F7FF03681B6B9847FFF76AF806AB002814
:10D520000ED000221A7105AA0692082218001A735A
:10D530000AAA9A60FFF72CF9002803D013B0F0BDB7
:10D5400018711873002727732771019BBA331B7852
:10D55000BB4242D907237B431A000199BB32CB1847
:10D56000BB331B788A180292022B2ED1002506AEFF
:10D57000337BAB4223D9AB000393089BAA00995895
:10D580000298FFF71BF900281CD0B3689C46AB003B
:10D590001900237B614402939A000868A368D05065
:10D5A000029B01332373337B5A1E954205D00C48EE
:10D5B0001B1860469B001B580B6006AB1A730137A3
:10D5C000FFB2C2E70135EDB2D1E7237921680298B5
:10D5D0009A00013350502371F1E70020AEE7C046B6
:10D5E000FFFFFF3FF0B50D009BB004AC1822060012
:10D5F000002120000BF0CCFB2A780220012A08D061
:10D600006B88032A07D1A03B1D499BB210008B42B7
:10D6100007D91BB0F0BD203B1A4A9BB203209342AE
:10D62000F7D8194BAA8803209A42F2D80AAB009384
:10D6300012AB02936A460023370013711373B83795
:10D640003B78002B15D16B46E3602B7820002370CC
:10D65000002363603B7823726B882382AB886382EC
:10D66000FFF71DFD031ED4D00720042BD1D00320CB
:10D67000CFE769463000FFF745FF0028E3D0C8E751
:10D68000603F0000E03F0000FF3F000070B598B031
:10D6900008AB04AD049310ABAB6006000023B936B1
:10D6A0002B712B7333780C00002B1FD101213378A1
:10D6B00002200B405A006B461B78019583431343AD
:10D6C0006A46A0798B430840034313702388684659
:10D6D000138163885381A3889381FFF7F6FC0300CD
:10D6E0000320002B00D1180018B070BD2900FFF7EF
:10D6F00009FF0028DAD0F7E7F0B59DB01C006B46B3
:10D7000005001A70581C0622229E0BF0AFFA002C5E
:10D7100034D0228802AB1A8062885A80A2889A800C
:10D72000E288DA8004AC0021102220000BF030FBEC
:10D730000CAB08A9089314AB8B602F000023B937FA
:10D740000B710B733B78002B1ED1012202203B781A
:10D75000134059002378834308A860600B43002ED0
:10D7600019D1290032310978934311400B432370BA
:10D77000AB8D2381EB8D63812B8E16E01A4B0293C8
:10D7800096239B040393CDE72800FFF7BBFE0028F8
:10D79000DBD01DB0F0BDB179934311400B43237032
:10D7A0003388238173886381B38802AA2100684685
:10D7B000A381FFF78EFC030000208342E9D00630EE
:10D7C000082BE6D006D80130042BE2D0834209D1E1
:10D7D0000420DEE70520112BDBD0044A9342F7D06A
:10D7E000102BF5D00B20D4E7320064000232000089
:10D7F000030030B5F33387B0040019700500102220
:10D80000002102A80BF0C4FA194B049402930023E0
:10D810000393184BF83505930AF028F82300FC33DE
:10D820001B6B002B07D123003133FF331B78002BF8
:10D8300001D002F053F82134FF342000FDF79DFCA5
:10D84000002C09D0059B002B03D05B6802A92000A7
:10D850009847059B0193E360002200232800FDF711
:10D86000B2FC0AF02DF802A8FDF787FC07B030BD26
:10D8700031D201003CE4020010B50400002001F0A8
:10D880003FFE0368DB6998472100FFF7B1FF10BD39
:10D8900090DF704796DF704798DF704793300078CD
:10D8A000431E9841C0B27047080010B5110080B205
:10D8B0001A00FFF7EFFF0023984203D01138431EF0
:10D8C0009841431D180010BD30B5002485B001AD4E
:10D8D0006B80089B2970EB80099B90B229006C70CB
:10D8E000AC800393FFF7D8FFA04207D0053411287E
:10D8F00004D0044BC018444244410634200005B013
:10D9000030BDC046FCCFFFFF10B50368002B01D02F
:10D910000800984710BD10B5ED30FF30FFF7FBFA57
:10D9200010BD10B5ED30FF30FFF7E1F810BD10B5B8
:10D93000ED30FF30FFF71AFA10BDF0B587B001AB3C
:10D940001A000C00E0CCE0C20200B532FF32C96818
:10D9500070CB70C20023B530FF30C160036107B0E7
:10D96000F0BD000010B50400054B08330360ED3036
:10D97000FF30FFF7A3F82000FEF700FA200010BDEB
:10D98000DCE4020010B50400FFF7ECFF200002F019
:10D99000B1FA200010BD0000F0B50026050087B0E8
:10D9A00001AC310046602000FEF707FA2B00220090
:10D9B000083383CA83C30C2703CA03C328003A0071
:10D9C00031001C300BF0E4F90C4B3100AB62EE621D
:10D9D0002000FEF7F2F92B00303307CC07C32800F4
:10D9E00006CC06C344303A0031000BF0D1F93000C8
:10D9F000034B6E652B6507B0F0BDC04609D9010029
:10DA000027BC010070B50400FEF71BF90625061EB1
:10DA100029D120003430FFF7BFFF3500002822D184
:10DA2000230090331E809E70DE70C2235B00E650A0
:10DA3000E218863BFF3B53609360D3601361CE22B4
:10DA40005200A6502200B5349D32FF32FF3453609D
:10DA50009360D360136131000C2220000BF098F921
:10DA6000024B2661E360280070BDC04635BC010052
:10DA700070B5002506008AB0290002A80195FEF7BE
:10DA80009CF93200953201ACFF3225766583A5837F
:10DA9000E58325620BCC0BC20BCC0BC20BCC0BC2AB
:10DAA000336830005B68984733005F331D70A842CD
:10DAB0000DD0C02330005B00F3588130FF30AB4203
:10DAC00005D0044BAB4202D0C368716898470AB0D6
:10DAD00070BDC04601BA010010B53430FFF7C8FF71
:10DAE00010BD0000F0B591B0019106A904009C465C
:10DAF00010000B00E0C8E0C3D368654604930BAB8D
:10DB000018000293C8CDC8C020002700343005900B
:10DB100093373D780620002D3CD16046C3680393BF
:10DB200050239C46A444634645C945C3049B029ABE
:10DB3000E36523002566783343CA43C32000039A74
:10DB400016991A6004331D6014223C300BF08EF8D5
:10DB500020001422179964300BF088F8019B0121F2
:10DB6000A3636B4690342580988839702A00FFF7AC
:10DB70008FFE04002800002C0CD00598FFF778FFDA
:10DB80000520112C06D0044B9C4202D00130072CFA
:10DB900000D1042011B0F0BD02300000A0DF7047BA
:10DBA000A4DF7047A5DF7047A6DF7047A8DF704786
:10DBB000A9DF704767DF70470020704710B580B25B
:10DBC000FFF7EEFF03000C2817D008D8052814D063
:10DBD000072814D00020834207D00B2005E010282E
:10DBE0000DD003D808200F2BF7D110BD054A904265
:10DBF00003D0D02292019042EFD10320F5E7042018
:10DC0000F3E7C0460230000013B504680093A4682F
:10DC100013000A000149A04716BDC046FFFF0000DF
:10DC200037B50800002511006A4655806D46069CF0
:10DC300080B2228801932A806A46FFF7B3FF03234C
:10DC4000002802D12B882380030018003EBD00006D
:10DC500037B506AC25780468019500932469130054
:10DC60000A000149A0473EBDFFFF000010B5036850
:10DC7000002B01D00800984710BDF8B50400002023
:10DC80000D00160001F03CFC0368DB69984723682F
:10DC90009F69FFF734FC330001002A002000B847D9
:10DCA000F8BD0000F0B5040099B008002E250C91D5
:10DCB000FEF7BAFD06ABED1812902A0012A901205A
:10DCC000FFF76CFF002802D0032019B0F0BD2B88AD
:10DCD0000C9A0B9093830C9B0B9A1B7D934200D85C
:10DCE000CAE06379132B01D90720EEE70C9B9B69EF
:10DCF0000D930B9B0D9A9B009D586B69002B07D1D0
:10DD00006B8B002B04D16B1CDB7F022B00D1AEE0B0
:10DD10002800FEF789FD002612900F960E960D96AC
:10DD20002B0028331B78B3421AD96A6AB3009F5874
:10DD30000023180013A90B70CA1801335070102B60
:10DD4000FAD1504B38004B82FEF770F8002804D00F
:10DD50007B690D970E937B8B0F930136F6B2DFE74D
:10DD60006179AB1CC900C43161186A1CDB7FD27FAA
:10DD7000089129002A3109780020079129002931CA
:10DD8000097806910F9905910E990491297F0391C5
:10DD9000298B0291698B01916969009112A9FEF7A3
:10DDA0009BFD002800D08FE763791A001C32920097
:10DDB0001833A218DB005560E3189B88EB830D9B9A
:10DDC000002B06D063790D9A1833DB00E318DB884B
:10DDD000D38300276379013363712B0028331B78C9
:10DDE000BB4244D9C2235B00E35C072B00D97BE72D
:10DDF0006A6ABB009E580023180013A90B70CA184A
:10DE000001335070102BFAD11E4B30004B82FEF7BD
:10DE10000DF80D90002827D13000FEF705FDC22136
:10DE20004900625C738BC3325200A2180292327FA7
:10DE300012900192328B12A9009272690D98FEF72E
:10DE4000F5FD002800D03FE7C2214900635C1A00BD
:10DE500058329200C033A2185B005660E318DB888A
:10DE6000F383635C013363540137FFB2B5E70B986A
:10DE70000130C3B20B932EE72379002001332371C5
:10DE800023E7C04601290000F0B504001E0000236E
:10DE9000457985B0C4349D4224D908342700083F11
:10DEA0003F88974211D11833DB00C3180E241A891A
:10DEB00002236C442380036803AD00949F682B0009
:10DEC000B847002803D005B0F0BD0133E3E723884D
:10DED0000620022BF7D12B8800209B07F3D00123CB
:10DEE0003370F0E70420EEE7F0B50E000A218BB0A6
:10DEF000019002A8091800201400088011AA10A996
:10DF00000988127804AD29806B6082421AD1019988
:10DF10004879C43190420FD908310F00083F3F883B
:10DF2000A7421BD101991C3292008A1830215268F5
:10DF30000132D27F0A4213D12A0021003000FFF7BC
:10DF40003DFE09E0B0B22A002100FFF729FE0300E0
:10DF50000320002B00D118000BB0F0BD0132D9E72F
:10DF600010210A4051424A41002006AFFB6010AB2D
:10DF7000BB60244B01323C80BA70B8809E4207D10E
:10DF800001F0BEFA0368DB699847FFF7B8FA0600AC
:10DF9000002302AAD3711B4B9E421CD102ABDB793A
:10DFA000002BC9D0B6B239003000FFF7FDFD82B2B8
:10DFB00000208242D0D0112A21D018D8082A1CD0A3
:10DFC0002A0021003000FFF7EBFD03000320002BA7
:10DFD000C2D10230C0E702AB073322003100019802
:10DFE000FFF752FF0028D9D00328B5D1D6E7064B5A
:10DFF0009A4204D0054B9A42E2D10620ACE70520B4
:10E00000AAE7C046FFFF0000033000000134000013
:10E0100010B5D28BFFF738FF10BD10B50300427961
:10E02000002074339200D218934208D019680C8BE8
:10E03000211C844200D2011C88B20433F4E710BDD5
:10E04000F8B5D0235B00C75804000E00002F15D18F
:10E0500005009935FF352000FFF7DFFF0AF0CCFA05
:10E060000C235F43E4192300A133FF33186000231E
:10E070009934FF34636026802800F8BDD6235B0006
:10E08000C358002B04D10500A535FF350127E2E771
:10E09000DC2300255B00C358AB42EDD10500B13550
:10E0A000FF350227D7E70300002210B59933FF336D
:10E0B0009C68002C02D01C888C4205D001320C33A5
:10E0C000032AF5D1002004E00C2353439933FF3396
:10E0D000C01810BD70B5FFF7E6FF00240500A04290
:10E0E00004D080680AF092FAAC600134200070BD60
:10E0F00070B50400C530FF300500A134FF3420683E
:10E10000002803D00AF082FA002323600C34AC42CA
:10E11000F5D170BD70B50C220D00002104000AF08D
:10E1200037FE00232361024B25602000E36070BDB1
:10E130006DDC0100F0B5040087B0236B6363606B96
:10E14000002807D0C36821009847636B002BF4D0E8
:10E150001B69F3E7206B002804D0056901F0CAFEB3
:10E160002800F8E72063A080E068002804D0056953
:10E1700001F0C0FE2800F8E7E060A069002804D0A4
:10E18000056901F0B7FE2800F8E7666AA061002E75
:10E1900005D03569300001F0ADFE2E00F7E701AD86
:10E1A000310066622800FFF7B5FF23002A003833EC
:10E1B00083CA83C3EB6831006364A6642800FFF759
:10E1C000A9FF23002A004C3383CA83C3EB683100C4
:10E1D000A365E6652800FFF79DFF23002A00603352
:10E1E00083CA83C33000EB682667E36607B0F0BDDF
:10E1F00070B50500FFF79EFF04000620002C20D11B
:10E2000028005022210074300AF0C2FD2800653039
:10E2100020222100FF300AF0BBFD28000822210047
:10E22000C4300AF0B5FD2800873010222100FF30ED
:10E230000AF0AEFDC2235B002800EC54FFF758FF44
:10E24000200070BD70B504000D006368A360A06875
:10E25000002807D0C36829009847A368002BF4D092
:10E260001B69F3E770BD10B5C368984710BD000087
:10E270000B0010B51100042B0BD0052B13D0032B72
:10E2800006D1836B002B03D00C4B3830002B07D109
:10E2900010BDC36C002BFBD0084B4C30002BF7D0CB
:10E2A000FFF7E1FFF4E70300026E6033002AEFD0CE
:10E2B000024A002AECD01800F2E7C04601BA010079
:10E2C000F0B50B8893B004000F00502B41D007D855
:10E2D000012B00D16FE0022B00D190E013B0F0BD14
:10E2E000522B00D176E000D27BE0532BF6D1CB88C5
:10E2F00005210193230000206279C4330290029823
:10E30000824200D8A1E10833180008380088019D36
:10E31000A84200D07CE0029B0393062900D15BE178
:10E32000072900D19CE1019A022940D1BB880DA99F
:10E330000D936B469B888B803B7B8B71FB890B819C
:10E340003B8A12374B81CF6020001430FFF77AFFF1
:10E35000C4E7CB880200019300234179C832994277
:10E360000FD90832100008380088019DA8420AD150
:10E370001C339B00E3185A68531CD87F3023184283
:10E3800003D10221B6E70133E9E7F97CBB7C09023E
:10E390000B43810602D503219D0707D40421C00643
:10E3A00004D503390B40594259410331D28B200027
:10E3B000FFF75EFF92E70D7AE3682361206900288A
:10E3C00000D18BE7C368290098472369002BF3D05D
:10E3D0001B69F2E7002388881A001900FFF7E8FBA1
:10E3E0007CE78B79012B06D0022B00D076E70B89D6
:10E3F000072101937EE70B89062101937AE78D8837
:10E400002900FFF71DFE00212800FFF7D3FB65E779
:10E410000298013072E729002000FFF744FE061E33
:10E4200001D19F4922E0C088002823D13B89738015
:10E430003B8AB3803C00B36814347A8A18182100F0
:10E440000AF014FCF3887A8A00219B18F3800DAE41
:10E45000082230000AF09CFC022331003370013B9B
:10E46000B3713B8A33817B8AF46073812800FFF7A4
:10E470009DFB33E7B388019A1B189A4200D005E14F
:10E480003A8973889A42D5D0854900E12900200055
:10E49000FFF720FE8349E9E729002000FFF703FE8C
:10E4A000061EBED02E2004AB0A22C01800210AF09E
:10E4B0006FFC0D95738804AA1385B3885385F38880
:10E4C0009385B3681093039B1C339B00E3185B6830
:10E4D0001A002A321278002A08D018000DA9DB6C25
:10E4E0004030984704AB9B8E002BCDD1F38805AA12
:10E4F0001380B38828005380B36853607188FFF796
:10E500004FFB0028C0D167492800FFF74FFB2000D0
:10E510000995738809A98B80BB7B14308B71B388F4
:10E520000B81F3884B81B368CB60FFF78BFEB1E0C2
:10E530002E2004AB0A220021C0180AF029FC6B46E9
:10E540009B880DAE0D95B3803B8A05ADF3807B8A29
:10E55000102233813B000021143328000293F36022
:10E560000AF016FC02232B70013BAB71039B1C339A
:10E570009B00E3185A6813002A3319780023994244
:10E5800005D01000D36C403031009847338A05AD78
:10E59000AB80F2882A8132896A81F268EA60002BB6
:10E5A00003D00122AB799343AB71B8882900FFF700
:10E5B000FDFAAB88002B00D090E6BB8809A909932F
:10E5C0006B469B888B80BB7B8B713B8A0B817B8AE4
:10E5D0004B81029BCB60B7E60C2200210FA80AF00A
:10E5E000D7FBBB880DAE0D936B469B8809ADB380FE
:10E5F000FB89102200212800F3800AF0C9FB0123C7
:10E600002B70029B1C339B00E41863681A002932AC
:10E6100011780022914205D0180031002C309B6BFC
:10E620009847328AAA80338A002B0BD1F268002ADD
:10E6300008D0A97901330B43AB71F3882B8133895F
:10E64000EA606B81B888290011E7072900D045E608
:10E65000BB7B053B012B00D940E601235B420393C2
:10E660002000FFF7DAFCBB7BBD88052B00D10DE74E
:10E67000062B00D110E7042B00D059E73B8A019309
:10E680007B8A019A9B18834200DCC4E60649280075
:10E69000FFF78CFA29002000FFF71CFD1EE6C0469C
:10E6A00034E5020024E5020044E5020090DF7047F3
:10E6B00092DF704795DF7047016810B502000029AE
:10E6C0000AD013004C1E89004068521810C39342B0
:10E6D00004D0596802C3FAE70120404210BD016826
:10E6E00010B5020000290AD013004C1E89004068B2
:10E6F000521810C3934204D0596802C3FAE70120AC
:10E70000404210BDF7B5040003251826636922684E
:10E710005F33002A1DD01D706768042210496846C7
:10E720000AF0A4FA3B007343616901AACB181800F0
:10E73000743000887633108048681B8880B2694640
:10E740005380FFF7B7FF002808D02000FFF7B4FF81
:10E75000DCE71A78032A01D1023A1A70F7BDC046E5
:10E7600080E50200030000225C33F0B51A7002005D
:10E770000B788DB05D3204000392042B2DD81370FA
:10E78000A8220123002026005200A7185B42A050B7
:10E7900001977B60BB60FB603B618D1C6036029023
:10E7A0000492039B029A1B7893422CD9AB78002BDE
:10E7B00016D1049B0499E3585A1C6250019A9B009D
:10E7C000D318029A5A60AA88EB88B282F382029B1D
:10E7D0000835013302931836E3E70423039ACEE7A2
:10E7E000298807A8FDF7E9FA3200AB889C46EB8838
:10E7F000059307AB83CB83C203CB03C26346B382CB
:10E800006B469B8AE2E72300FC335B6D002B04D050
:10E8100020005130FF30FFF775FF0DB0F0BD000054
:10E82000F7B50500042624276B692A685F33002AA0
:10E830001BD004221E706C680F497C4389186846FF
:10E840000AF014FA6B6901AA1C19C034618B58686C
:10E8500011800131518080B26946FFF72BFF0028FB
:10E8600008D02800FFF73BFFDEE71A78042A01D121
:10E87000023A1A70F7BDC04680E502000300F0B509
:10E880000A7889B004000F005E33042A3DD81A705C
:10E89000B42300255B00E550230001226933524276
:10E8A000FF335A609A60DA601A61BE1C23005E333F
:10E8B0001B78AB423BD9242320006B43C030C318E4
:10E8C0009C46A36D3189079363680693F38805938B
:10E8D000B378002B1BD1B420400023585A1C22507F
:10E8E00020006930FF309B00C3185D600A236B4332
:10E8F000059A01910092FB189B79069A0799604648
:10E90000FEF742FB01350A36D0E70422BFE7338821
:10E9100002910A2168466943059A7918019289791A
:10E920000170069A07996046FEF764FBEAE7230048
:10E93000FC33DB6E002B04D020006930FF30FFF782
:10E940006FFF09B0F0BD00007FB503005F331B7897
:10E950000500032B2DD106002E4B8A685136FF3659
:10E960009A4222D11022096968460AF07FF93000E4
:10E97000FFF7A2FE182444432C1923000122200093
:10E9800060331A7069460F3261300AF06FF9230064
:10E9900021006E331A786D342378120272311343DA
:10E9A0000B803000FFF7AEFE7FBD3000FFF784FE26
:10E9B000FAE7042BF8D10600174B8A686936FF3650
:10E9C0009A4223D109691022033168460AF04EF9B0
:10E9D0003000FFF784FE242444432C192300012235
:10E9E0002000C4331A7069460F32C5300AF03EF970
:10E9F00023002100D2331A78D13423781202D63181
:10EA000013430B803000FFF70BFFCDE73000FFF71B
:10EA100066FEC9E7010010000100130010B5C368CD
:10EA2000984710BD73B502260024416005005E3092
:10EA3000467001AE047088B2310032807380FFF7F7
:10EA400037FE10280DD006D8A0420FD00634082873
:10EA500008D00B2406E00524112803D0044B98426B
:10EA6000F7D1042421002800FDF79AFB200076BD91
:10EA700002300000F0B50400182689B023005F338F
:10EA800001931B78012B6CD1250022005C355D328F
:10EA90002B781278934252D227000021083703A81E
:10EAA000FDF78BF903A93800FDF7C0F9002819D04C
:10EAB000E369002B23D1019B1B78012B1BD1636CD5
:10EAC000002B18D0284B002B15D02A786168724390
:10EAD000A2181300743276331B8812882000FFF7C7
:10EAE000A1FFCBE729783800714360316118FDF749
:10EAF0009DF90028DCD12B7801332B70BEE71A4B2F
:10EB0000002BD8D0002103A8FDF757F9200003A956
:10EB10003030FDF78BF90028CDD0200029781C304B
:10EB2000714360316118A36A9847C4E76368013193
:10EB300089B298B2FFF7BAFD002812D00EE0002A81
:10EB40000FD0002B0DD05A1E182353430022E31878
:10EB500076331988054B2A809942E7D12000FEF7C9
:10EB600087FF09B0F0BDC04601BA0100FFFF0000F9
:10EB70000300F0B55F3393B002931B780500022BBE
:10EB800000D0C6E0040024220021953409A80AF030
:10EB9000FFF8FF3409A8FDF78AF909A92000FDF75D
:10EBA00063F9011E1BD12B005E331B78002B16D09E
:10EBB0002B00D9222F00DA331B885200013BAB52C5
:10EBC000303704A8FDF7F9F804A93800FDF72EF94D
:10EBD000061E44D028006B6C4430002B53D1002417
:10EBE0002A005E32029913780978A34200D88DE09A
:10EBF000022900D08DE0591E8C424BD124214C4378
:10EC000029002C199531C034FF31C1CCC1C1C1CC10
:10EC1000C1C1C1CCC1C1002B00D17CE0591E24234D
:10EC20004B43EB18C033988B01302B005C331978C1
:10EC300018234B430021EB1876331B881170984240
:10EC400009D209A94B806B68088098B2FFF730FDA4
:10EC500000285ED00B212800FDF7A2FA59E0290018
:10EC60009931FF313800FDF7E1F80028B7D03100C5
:10EC700009A8FDF7A2F8280009A90830FDF7D6F881
:10EC80000028ACD1A6E7254B002BA8D02100FFF728
:10EC9000C5FEA4E72426664333002F00C033EB18DB
:10ECA0000193AB19E4335B8B019A013BD3830021C1
:10ECB000303704A8FDF781F804A93800FDF7B6F84D
:10ECC0000390002807D028006B6C4430002B16D12D
:10ECD0000134E4B284E73100C43169183800FDF72B
:10ECE000A5F80028F4D0039909A8FDF766F82800D4
:10ECF00009A90830FDF79AF80028E9D1E3E7074BA6
:10ED0000002BE5D00199FFF789FEE1E7022900D148
:10ED100081E713B0F0BD024887E7C04601BA0100A1
:10ED2000FFFF00000220704702207047002070475C
:10ED30000020704700487047FFFF00000220704726
:10ED4000022070470220704702207047022070475F
:10ED5000022070470220704702207047022070474F
:10ED6000022070470220704702207047022070473F
:10ED70000023136070470020704702207047022074
:10ED80007047022070470220704702207047002021
:10ED90007047002070470020704702207047022013
:10EDA00070474160704781607047C1607047016182
:10EDB000704741617047022070470220704702206F
:10EDC00070470220704702207047022070470220DF
:10EDD000704790DF704766DF704748DF70475F30ED
:10EDE0000078431E9841C0B27047007970471030D8
:10EDF00070471030704710B503689B689847FFF75D
:10EE0000ECFF10BDF7B50193036800915B68040047
:10EE10001700984705000620002D3AD123003A003C
:10EE20001C3343CA43C3FB68019AA3622300E56213
:10EE3000443343CA43C32000019B1422DB68089972
:10EE400023656565083009F011FF20001422099937
:10EE5000303009F00BFF009B0121636023005C331D
:10EE60001D80D9706B462A001888FFF7B2FF060094
:10EE70002800002E0DD0236820009B6898470520AD
:10EE8000112E06D0034B9E4202D00130072E00D136
:10EE90000420FEBD02300000044B10B51A78002A91
:10EEA00003D000221A7008F0BBFA10BDE03B00202E
:10EEB00070B5FC30C46D0500002C0DD1242001F08C
:10EEC0000DF8064B44608361054B8460C4600461A7
:10EED0004461C4610360E865E86D70BD5CE60200F2
:10EEE000F0E60200082370B596B002AA137106AAD4
:10EEF000029202AA137310000EAB0D0004930024BB
:10EF0000FDF746FC0726A04210D02C7116B070BD4C
:10EF10003000029B604301932A680199A3001018F6
:10EF20005958072209F0A2FE0134E4B202AB1B7962
:10EF3000A34205D96B79A342EAD82C710020E5E7FA
:10EF40002C710726002402AB29791B7B6118A34290
:10EF500002D96B79994201DB2971EFE771432B6884
:10EF60005918049B0193019AA30098580134FDF7A6
:10EF700029FCE4B2E7E710B5FDF794FB10BD10B52E
:10EF800008001100FDF7CEFB10BD10B50800110000
:10EF9000FDF79EFB10BD10B5080011001A00029B82
:10EFA000FDF72CFB10BD00007FB503791548002B41
:10EFB00022D0154E154C33782000002B1CD102AD09
:10EFC0002800FFF708FF002810D16B88592B0DD1BE
:10EFD0002B78AA88D91F012910D800920C4A202129
:10EFE00020000AF00DF90123337004E020220949C2
:10EFF00020000AF079F9200004B070BD0092064AA2
:10F00000EDE7C0461CE70200B83D0020983D002017
:10F010003EE7020036E702005BE7020070B50379C5
:10F0200005000924002B1ED008F088FA043C0028B3
:10F0300019D12E00FC36706D00280FD1F06D00281C
:10F0400013D1B06D002816D128001030FEF740FA19
:10F05000041E08D1FDF7CAFB2C7104E003681B6A8B
:10F060009847041EEAD0200070BD03689B6A984749
:10F07000041EE6D0F7E703685B6B9847041EE3D0F5
:10F08000F1E770B50400E3692362206A002807D025
:10F09000C36821009847236A002BF4D01B69F3E76B
:10F0A000E069002804D0056900F024FF2800F8E793
:10F0B000E0616060A060E0602061606170BD10B5DB
:10F0C000FFF7DFFF0623002800D10300180010BD62
:10F0D00003000A0070B58133FF3370CA70C38130FA
:10F0E000CB68FF30C3600023036170BD064B70B571
:10F0F000040003604068002804D0056900F0FAFEAF
:10F100002800F8E7200070BD5CE6020010B504009E
:10F11000FFF7ECFF200000F0EDFE200010BD000026
:10F12000064B70B5040003604068002804D00569F0
:10F1300000F0E0FE2800F8E7200070BD6CE6020059
:10F1400010B50400FFF7ECFF200000F0D3FE200014
:10F1500010BD0000064B70B5040003604068002835
:10F1600004D0056900F0C6FE2800F8E7200070BD55
:10F170007CE6020010B50400FFF7ECFF200000F071
:10F18000B9FE200010BD0000064B70B504000360FE
:10F190004068002804D0056900F0ACFE2800F8E7BC
:10F1A000200070BD90E5020010B50400FFF7ECFFF1
:10F1B000200000F09FFE200010BD0000064B70B53F
:10F1C000040003604068002804D0056900F092FE46
:10F1D0002800F8E7200070BDA0E5020010B504008B
:10F1E000FFF7ECFF200000F085FE200010BD0000BE
:10F1F000064B70B5040003604068002804D0056920
:10F2000000F078FE2800F8E7200070BDB0E50200AD
:10F2100010B50400FFF7ECFF200000F06BFE2000AB
:10F2200010BD0000064B70B5040003604068002864
:10F2300004D0056900F05EFE2800F8E7200070BDEC
:10F24000C0E5020010B50400FFF7ECFF200000F05D
:10F2500051FE200010BDF7B5037907000E00140021
:10F26000002B11D008220021684609F091FD0A25E3
:10F270006B461D713000FCF705FCE36800906946A1
:10F28000200098472800FEBDFCF738FF05000C2041
:10F29000002DF8D1012308223B712900684609F0AE
:10F2A00077FDE7E770B5FC30C46D0500002C0DD18B
:10F2B000242000F013FE064B44608361054B8460FC
:10F2C000C46004614461C4610360E865E86D70BDB9
:10F2D0005CE60200F0E60200124B10B50833036052
:10F2E000114B040003618423104A5B00C250C01814
:10F2F000FBF7B0FF20000E4BBC302361FFF792FFFD
:10F300002000B030FFF774FF2000A430FFF756FF55
:10F3100020007030FFF738FF2000FCF737FC20009A
:10F3200010BDC04680E7020050E402006CE302001A
:10F33000D0E5020010B50400FFF7CEFF200000F07A
:10F34000D9FD200010BD10B51F220021040009F0D6
:10F350001FFD0023E37710BD10B5FEF789FB10BD3C
:10F360004B4AF0B506000261A0224A4B1A36083318
:10F37000036001000023C2820400320085B00371E3
:10F380008360037503833931137001329142FBD1DD
:10F39000802580222000AD00D201F3773584110052
:10F3A00000933C300023FCF7F9FB23002100443399
:10F3B00003931A002B0000256331157001328A4235
:10F3C000FBD1039A0121D5772200643213802300F8
:10F3D00066331D70137920008B4349188B431371DA
:10F3E00023006C331D702C4B656723670C220021B2
:10F3F0007C3009F0CDFC23002700284A8C331D60A7
:10F400009037043B00211A6038000C2209F0C0FC40
:10F41000234B244AFB602300A4333D611A60224A37
:10F420005D60DA60214A1D619A61DD613000FFF79D
:10F430008AFF0398FFF787FF1D4B200023612300FD
:10F440000930C8331D705D709D70FF30FBF7A8FF59
:10F4500084262000174B76003130A3511022002162
:10F46000FF3009F095FC230001214133FF3319706F
:10F47000114B0122A351A42352425B00E25223000C
:10F480002000FC335D659D65DD6505B0F0BDC046BF
:10F49000D0E5020080E7020090E5020023D20100DF
:10F4A00015D20100A0E50200B0E50200C0E50200AF
:10F4B00050E4020058E302006CE3020070B50C4D0A
:10F4C0002B78BFF35B8F0B4CDB070FD4280000F0C9
:10F4D000DBFC00280AD02000FFF742FF280000F0E4
:10F4E000F1FC054A0549200000F0BEFC200070BD7B
:10F4F000343C0020383C0020F82E0020D9F20100D6
:10F5000010B5FFF7DBFF10BD10B5FFF7D7FF10BD3B
:10F5100070B5002604002B4B868003602A4BC66022
:10F5200083602A4B86614361294B46620362294B03
:10F530000663C36231003830FEF7ECFD2000310075
:10F540004C30FEF7E7FD200031006030FEF7E2FDB1
:10F55000214B2500236023007435C43340C59D42F0
:10F56000FCD126006536FF36280008220021083528
:10F5700009F00EFCB542F7D1220000238532FF329C
:10F5800008C5AA42FCD1C2225200A3542300220083
:10F59000002187339732FF33FF32198002339342C1
:10F5A000FBD1250026009935BD36FF35FF362800F2
:10F5B0000C2200210C3509F0EBFBB542F7D12000FD
:10F5C00070BDC0468CE602006CE60200C8E3020093
:10F5D000B8E302007CE602005CE5020070B5FC3096
:10F5E000436D0400002B07D1DE20400000F076FCC4
:10F5F0000500FFF78DFF6565606D70BD70B5FC306F
:10F60000436D0400002B07D1DE20400000F066FCB3
:10F610000500FFF77DFF6565606D70BD70B50C225C
:10F620000D000021040009F0B3FB00232361024B0D
:10F6300025602000E36070BD27BC010070B50400A8
:10F64000FEF7AAF905000620002D23D123005C3324
:10F650001D809D70DD70A8235B00E550E218523BD1
:10F66000FF3B53609360D3601361B4225200A550F6
:10F67000220081346932FF32FF3453609360D360DB
:10F68000136129000C22200009F082FB2800024BA4
:10F690002561E36070BDC04635BC0100F8B50025AA
:10F6A0000400304B0E000360057245830C222900D4
:10F6B0001C3009F06DFB2C4B2000A362230030337B
:10F6C000E5621D70231DDD8744302900FFF7A6FF8A
:10F6D000264BA66523602300270026005C331D808F
:10F6E0009D70DD706037C03638000021FCF765FB87
:10F6F000BD82FD821837BE42F6D125005135FF3557
:10F7000024220021300009F043FB30002436FCF7AE
:10F71000CEFBAE42F4D1A82300255B00E5502300C8
:10F72000FC339D65DD651D665D66B422746126004F
:10F7300052008136A550FF361D675D679D67DD6706
:10F74000A3185D3A29005C61FF3A300009F020FB04
:10F750002000074B95303561F360FF30FCF7A7FBC5
:10F760002000F8BDB8E6020009D90100D4E6020085
:10F7700035BC010070B5FC30866D0500002E1CD133
:10F78000B420800000F0AAFB04000D4B86604360AB
:10F790000C4B466103610C4B0662C3610B4BC662A6
:10F7A00083620B4B210003603430FFF777FF2000AA
:10F7B000ED30FF30FDF724FAAC65A86D70BDC04692
:10F7C000B8E30200C8E30200D8E30200E8E3020065
:10F7D000E4E4020010B5034809F054FD024B186040
:10F7E00010BDC046C4E70200BC3D002070B50D004E
:10F7F00000210123415604008B40A021C905002AA5
:10F800000BD0A122D2008B502000012107F0E4FF91
:10F810002900200007F0C8FF70BD014AF3E7C04689
:10F820000C05000070B50D000400160007F088FFFD
:10F830006B1C04D0320000212000FFF7D7FF70BD01
:10F8400010B50022FFF7EEFF10BD00000048704722
:10F85000F0E70200034B10B51B68002B01D00248F3
:10F86000984710BD042F0020F0E702000023CB567C
:10F870005A1C01D1180002E0834201D14868704748
:10F880000C31F3E710B50400431C07D0FFF7EEFF7F
:10F890000400431C02D1024800F0A2FA200010BD6F
:10F8A00032E802000023CB565A1C01D1180002E0B6
:10F8B000834201D1886870470C31F3E710B504002A
:10F8C000431C07D0FFF7EEFF0400431C02D102489F
:10F8D00000F086FA200010BD14E8020010B507F011
:10F8E000C5FF084C084B22889A4204D107F0E8FF74
:10F8F000064800F075FA0121200000F056FA07F0E2
:10F90000DFFF10BD003E0020FFFF000052E80200B4
:10F9100010B507F0ABFF084C2388002B04D107F08B
:10F92000CFFF064800F05CFA0121200000F04AFAFF
:10F9300007F0C6FF10BDC046003E00207FE8020071
:10F9400010B507F093FF064B1B88002B04D108F07D
:10F9500011F807F0B5FF10BD07F0ECFFF9E7C0465E
:10F96000003E0020F0B50500036887B05B6844687E
:10F9700098476B681B6A834230D0236AE268C31AD7
:10F980001A40A5682B4B1600002720629D421FD00D
:10F99000A26AE36A30000292039339000023254AE9
:10F9A0000CF02EFE80231B029D4223D14B04C60B7C
:10F9B0001E4300234004420CCF0B029803991218F7
:10F9C0004B41002B0CD11C498A4209D8A262E36248
:10F9D000226B636BB6185F412663676307B0F0BDA7
:10F9E0000120002136184F410121144849421218C4
:10F9F0004B41EBE701970095009A019B0CF0E0FD6D
:10FA00000490059106000F000298039912184B41CB
:10FA10000199994202D100999142D7D80498059949
:10FA20000126002736184F4100980199121A8B4180
:10FA3000CCE7C04640420F00FF7F00000080FFFF80
:10FA40000300824206D901208A4202D999428041AC
:10FA50004042704700208B42FBD991424041F8E779
:10FA6000F7B505004668FFF77DFF6C682A68636894
:10FA70000192002B45D0206B616B1A685B688B424A
:10FA800006D801D1824203D8019B5B699847F7BD34
:10FA9000121A8B41E169276999420AD302D1A169FF
:10FAA000914206D3A0681B49884216D1974200D9DB
:10FAB0001700236AFF18E3681F40019B38001B6989
:10FAC00098472B685B6898473A000100306AFFF757
:10FAD000B7FF0028DBD02B68D7E7802109028842D6
:10FAE0000BD1500CD9030143D0030A4A00230CF078
:10FAF00067FD8742DDD90700DBE700210CF080FDC0
:10FB0000F3E7336A3269F0689B181840019B1B6960
:10FB10009847BCE740420F00F0B5436887B03833E0
:10FB20001B780500002B56D103681B6898472B688B
:10FB30009B6998470768002F00D1284F4668331FFC
:10FB40001C2B00D920260722331F9A400023039242
:10FB50000193D1170023214A039800970CF050FD20
:10FB6000009B019C0490059101204042C117C018E0
:10FB70006141049B059CC0186141009A019B0CF0F7
:10FB80001FFD00236C6800900191236063602B6867
:10FB90005B6898470023002220626C680120A26203
:10FBA000E362A760320000210CF0A2FC0099019AE8
:10FBB000039BA161E261236100220023226363634E
:10FBC00001230138E060383428002370FFF7CAFEB3
:10FBD0002800FFF745FF07B0F0BDC04640420F00C8
:10FBE00070B504000D00FFF797FF63681D6070BDDE
:10FBF000036810B5DB680400984763685B68002BF6
:10FC000015D02000FFF7AEFE63685A68596B506844
:10FC100088420CD803D11168186B814207D8D1688B
:10FC200059601B68002BE8D090689847E5E72000F2
:10FC3000FFF716FF10BDF8B505000C0017001E00F9
:10FC400007F014FE2800FFF78DFE0022069B69686E
:10FC5000A3604B6827606660002B09D1E360002A2F
:10FC600010D14C602800FFF7FBFE07F029FEF8BD1D
:10FC70005868B042F2D802D11868B842EED81A00DB
:10FC8000DB68E9E7D460EDE770B505000C0007F02C
:10FC9000EDFD6A685368A34208D1DB682800536011
:10FCA000FFF7DEFE07F00CFE70BD1300002BF9D04D
:10FCB000DA68A242F9D1E268DA60F3E710B504002D
:10FCC000FFF72AFF2000FFF74DFE6368186B596BA2
:10FCD00010BD10B5FFF7F2FF10BD000000487047DF
:10FCE000A8E80200034B10B51B68002B01D00248A6
:10FCF000984710BD082F0020A8E8020010B508F0B2
:10FD00008FFC10BD10B509F091F810BD10B508F0CA
:10FD100065FB10BD10B508F0E5FA10BDF0B585B073
:10FD200003AC15212000A026FFF78AFD0125F6056A
:10FD3000042700232A00E35696209A40A123DB00E3
:10FD4000F25000F004F900232A00E35696209A406E
:10FD50001300124A013FB35000F0F9F80F4B019322
:10FD6000002FE6D1043700232A00E356C8209A402A
:10FD7000A123DB00F250400000F0E9F800232A0044
:10FD8000E356C8209A401300019A4000B350013F47
:10FD900000F0DDF8002FE6D1CAE7C0460C050000F0
:10FDA000EFF3108301209843704770B505000C00F5
:10FDB00007F05CFD2B88E418A4B22C8007F080FDCE
:10FDC000200070BD70B505000E0007F04FFD2C88B7
:10FDD000A41BA4B22C8007F073FD200070BD0000AE
:10FDE0000FB410B5054B1A78002A03D10120187002
:10FDF00000F03CF810BC08BC04B01847483E002096
:10FE000010B5024B186801F0F3FD10BD505E0020E4
:10FE100010B5012000F02AF803000C4910B508685D
:10FE2000C318EFF30882934205D30C220120084B3C
:10FE300040421A6010BD074A1468002C04D0064ADC
:10FE4000126812199342F0D20B60F3E70C2F0020D6
:10FE5000DC5E00204C3E0020503E002010B5002803
:10FE600001D0FFF75BFFFEE70120704710B5FFF7F9
:10FE7000F5FF0120704710B500F044F910BD10B532
:10FE800000F04AF910BD000070B5032403780500A6
:10FE900023400026012B0BD00121094B4942186851
:10FEA00001F08AFD2A781440012C03D1FFF7A8FF46
:10FEB000300070BD022313432B700126F8E7C046C3
:10FEC000505E00200322037810B593431A000123EB
:10FED00013430370FFF794FF10BD000010B508F046
:10FEE0008BFB041E02D10248FFF77AFF200010BDF1
:10FEF000DCE8020010B508F089FB10BD004870472F
:10FF0000D4E8020000487047CCE80200F8B50400CD
:10FF1000FFF7E4FE0500FFF7DCFEFA21060089008A
:10FF200020000CF0F9F9071E0ADDFFF739FF002861
:10FF300006D0FFF7D3FC380002F0E0FAFFF7E8FC48
:10FF40002800FFF7C6FE801BA042F9D3F8BDFA23B4
:10FF500010B59B005843FFF7D9FF10BD7FB5061DB4
:10FF60000C0005001C220021300008F011FF002CBD
:10FF700000D1064C1C2368460393113B0296009463
:10FF8000019301F0F5FC28607FBDC046F9E802004E
:10FF9000002110B504000162FFF7E0FF200010BD52
:10FFA00010B50400006801F007FD002802D1236AA3
:10FFB0000133236210BD10B5036A013B0362006880
:10FFC00001F016FD10BD000070B50B251C2414486F
:10FFD000144B45600360144BC460836001F0C8FC9F
:10FFE000124B18601248134B45600360124BC460FB
:10FFF000836001F0BDFC114B18601148114B456046
:020000022000DC
:100000000360114BC460836001F0B2FC0F4B1860B9
:1000100008F0CEFA0021080000F064F870BDC04678
:100020008C5E00203AE90200545E0020505E002001
:10003000405E00204AE90200705E0020184E002059
:10004000C05E002057E90200245E0020205E0020F0
:100050008020094A094BC0009B1A1900834200D92D
:10006000010007485B1A01600649D018086006497C
:100070000B60064B1A607047E05E00200080002095
:10008000543E0020583E00204C3E0020503E0020B0
:10009000704770470D4A0E4B10B5136180235B010A
:1000A00053614823D3600B4B002193601823936165
:1000B000094B0A48136002F04FF9002802D10848A2
:1000C000FFF78EFE00F08CFE10BDC0469C5E002047
:1000D000204E0020D04D002012E90200C9FF01008F
:1000E0001EE9020010B5FFF7D3FF08F005F810BDB8
:1000F00010B5FFF7ADFFFFF7CCFF00F033FEFFF7C1
:10010000C9FF10BD012110B5024B4942186801F02A
:1001100053FC10BD184E002010B5024B186801F0BA
:1001200067FC10BD184E002010B500F051F9FCE737
:1001300070B505000C0002F029F90200681E0428C1
:1001400024D80CF04BF8030D13191E00200002F008
:1001500009F92200030001210F48FFF741FEFEE7E5
:10016000230002210D48FFF73BFEF8E7230003219F
:100170000B48FFF735FEF2E704210A48FFF730FE8F
:10018000EDE705210848FFF72BFEE8E729000748BF
:10019000FFF726FEE3E7C04661E90200B2E902008C
:1001A00008EA02006DEA0200C8EA020028EB020039
:1001B00010B502F0EBF802F097F910BD10B504008D
:1001C00007F0E4FC002805DB1F2318401E3B83409A
:1001D000054A53600122A06AE16A002312184B41CC
:1001E000A262E36210BDC046FCE100E010B504006D
:1001F000024B0360FBF714F9200010BD6CEB02000A
:1002000010B50400FFF7F2FF2000FFF773FE200097
:1002100010BD000070B50400FFF718FB01002000BE
:10022000FBF7D6F8234B002223600023A06922624B
:100230006362A262E362FFF741FD2062616207F040
:10024000A5FC1D4902F0C4F907F0A0FC00281DDB45
:1002500083081A4A9B009B18032210409040C0213B
:10026000FC32824089005D5895432A00C0258540B4
:100270002A435A5007F08AFC002805DB1F23184048
:100280001E3B83400D4A1360200070BD03210F23E5
:10029000034008408840FC318140083B084A9B08E5
:1002A0009B009B18DA698A43C02181400A43DA61C6
:1002B000E0E7C0466CEB02006304020000E100E0EE
:1002C00000ED00E00B0010B5002104001800A26A48
:1002D000E36A80185941084A00230CF091F9FA2288
:1002E000002392000CF06CF9226A636A12184B41E9
:1002F0002000FBF785F810BD40420F00D0B507F095
:10030000B5FA00F0ABFC0100002081422AD0184C65
:100310002068FFF7D7FFFFF7E1FAFFF711FBFFF7C0
:10032000F7FA2068FBF774F82468A069FFF7C6FCA9
:10033000FA22002392000CF063F90E4A00230CF01D
:100340003FF90B00E16A0200A06A8B4202D806D195
:10035000824204D901267642F71792197B41A262A4
:10036000E362101A00F0ACFC07F0AAFAD0BDC04658
:10037000903E002040420F0070B5074C2368002BD0
:1003800004D1064D2800FFF745FF256020680121B4
:10039000FFF798FF002070BD903E0020603E0020D7
:1003A00010B5034B1868FBF733F8002010BDC046AA
:1003B000903E002010B5034B01211868FFF782FF23
:1003C000002010BD903E00200120404270470000F8
:1003D00010B5024B1B689847FBE7C046102F002062
:1003E000EFF30980816902390978002926D101B526
:1003F0000FC8B8470CBC03C29E461D4B06CB9142AA
:100400001BD0002909D0EFF3098020388863F0C0A1
:1004100044464D4656465F46F0C0083B1A60906B16
:100420001030F0C8A046A946B246BB4680F3098802
:100430002038F0C80220C0430047704710B50D4A6D
:100440001368994206D8890054580FC8A047EFF3A3
:1004500009840FC410BD01B501F024FB03BC8E4616
:10046000CBE701B501F0DEFA03BC8E46C5E700001C
:10047000282F002024EC020010B5011E02D013200A
:1004800001F0DCFE002010BDB0B5040000F078FAE9
:10049000EFF30583002B03D1EFF31083002B07D07C
:1004A00006210020494200F05FFA06204042B0BD1C
:1004B0002000014F00DFFAE77904020070B5002840
:1004C00025D084680568002C0DD00323234002D179
:1004D000C2680F2A24D809210020494200F053FAAB
:1004E0000024200070BDC368002BF4D1144B1A0007
:1004F0009032106800280CD000F04DFD040001235C
:1005000000280DD10521494200F03DFAE9E7050038
:10051000ECE7043301221021D86F00F0AEFCEDE7C8
:100520000422A3700023FF322280A360E360054A07
:10053000034B656020005A6600F027FAD1E7C046F9
:10054000142F0020C506020070B5041E02D00378E7
:10055000032B07D004212000494200F014FA0420A4
:10056000404270BD4378002B05D10321494200F081
:100570000AFA0320F4E7002343708368002B0DD0B0
:1005800003256D42200001F0B1FB0022290001F09B
:1005900011FDA0680028F5D101F0DAFCA378DB0793
:1005A00008D50A4B1A0090321068002807D02100A5
:1005B00000F012FD200000F0F1F90020D1E7043333
:1005C0002100D86F00F092FCF4E7C046142F002001
:1005D00070B50223012414401A4015D1EFF31086A0
:1005E00072B603681D000D40002C06D0A94206D14A
:1005F0001A008A4302601A0001E02A1EF8D1002E78
:1006000000D162B6100070BD026813000B40002CD0
:1006100003D09942F6D00022F4E7591E8B415B4289
:100620001A40EFE7F7B50193254B04005B690E0014
:1006300017000093002B06D10821494200F0A3F9CE
:1006400001256D4221E0002804D00378032B01D15D
:10065000002906DA04212000494200F094F904251B
:10066000EFE74378002B05D10321494200F08BF9D5
:100670000325E6E70C30FFF7ABFF051E07D00300AC
:100680003A003100200000F086F92800FEBD019BF1
:100690003A0031002000002B0FD000F07AF9009BC7
:1006A00000995E620433DF77200001F007FB0199B7
:1006B000432001F0C3FD0225C3E700F06DF9D7E741
:1006C000142F0020F7B543780500002B02D0846872
:1006D000002C00D1F7BD2800A368271D0193FA7FE5
:1006E000616A0C30FFF774FF061E0DD0200001F088
:1006F00011FB00223100200001F05CFCFA7F330086
:10070000616A280000F047F9019CE1E7F0B50500B7
:1007100085B0002804D00378032B01D1002909DA21
:1007200004212800494200F02EF9042464422000EC
:1007300005B0F0BD4378002B05D10321494200F0FC
:1007400022F90324F2E703000C330193EFF3108343
:1007500072B6C4680C43C460002B00D162B6AE68A8
:10076000002E07D1300001F0F3FB2100280000F03B
:100770000EF9DCE7B368716A0293331D0393DA7FE5
:100780000198FFF725FF071E16D00222331DDB7FDD
:100790000400134201D1736A9C43300001F0BAFA9D
:1007A00000223900300001F005FC331DDA7F716A48
:1007B0003B00280000F0EFF8029ED1E7B0B504003E
:1007C00000F0E2F8EFF30583002B03D1EFF3108381
:1007D000002B06D006210020494200F0D4F800206A
:1007E000B0BD2000064FEFF314839B0706D4EFF350
:1007F0000883203BDB08DB0083F3098800DFEFE799
:10080000BD040200B0B505000C0000F0BFF8EFF326
:100810000583002B03D1EFF31083002B2AD0002D8A
:1008200004D02B78032B01D1002C08DA04212800F6
:10083000494200F0A8F8042464422000B0BD6B785F
:10084000002B06D103212800494200F09CF8032424
:10085000F2E7EFF3108372B6EA681443EC60002B02
:1008600000D162B6280001F05FF92100280000F0F5
:100870008EF8E2E728002100014F00DF0400DCE7EA
:100880000D070200F7B504000E0001921D0000F0F4
:100890007FF8EFF30583002B03D1EFF31083002BD8
:1008A00030D0002C06D02378032B03D1002D01D1AA
:1008B000002E08DA04212000494200F064F80425E3
:1008C0006D422800FEBD6378002B06D10321200075
:1008D000494200F058F80325F2E72000019A310060
:1008E0000C30FFF775FE051E06D00300019A31009B
:1008F000200000F050F8E4E7019A3100200000F0F9
:100900004BF8E8E720003100019A2B00014F00DF8F
:100910000500D6E725060200B0B5040000F03DF85A
:10092000EFF30583002B03D1EFF31083002B07D0E7
:1009300006212000494200F026F806204042B0BDC2
:100940002000014F00DFFAE74905020070477047B9
:1009500070477047704770477047704770477047DF
:1009600070477047704770477047704770477047CF
:1009700070477047704770477047704770477047BF
:1009800070477047704770477047704770477047AF
:10099000704770477047704770477047704770479F
:1009A000704770477047704770477047704770478F
:1009B000704770477047704770477047704770477F
:1009C000704770477047704770477047704770476F
:1009D0007047000073B56B4C217A012903D1FFF7F2
:1009E000BDFF002007E0002906D001204042FFF7AC
:1009F000B3FF0120404276BD9C22634808F0C8F94D
:100A0000624D6B6D0193472B01D80B20EEE7EA682E
:100A1000002AEAD02B8A002BE7D0E265220054326C
:100A20001380AB68296B2364EB6A1800019300F014
:100A300007FA002802D0019A231DDA676B69A969B9
:100A40001800019300F0FCF9019B002801D1231D3F
:100A5000DB6F6367EB69296A1800019300F0F0F916
:100A6000019B002801D1231DDB6FA3676B6AA96A74
:100A70001800019300F0E4F9019B002801D1231D27
:100A8000DB6F6E6BE367002E0AD0F368B2683168E3
:100A9000300000F054FA002802D023000833DE674B
:100AA000AE6B002E0AD0F368B2683168300000F0F7
:100AB00046FA002802D0230088331E60EE6B002E19
:100AC0000AD0F368B2683168300000F038FA0028C4
